{
  "_format": "hh-sol-artifact-1",
  "contractName": "Lottery",
  "sourceName": "contracts/lottery.sol",
  "abi": [
    {
      "inputs": [],
      "stateMutability": "nonpayable",
      "type": "constructor"
    },
    {
      "inputs": [],
      "name": "getPlayers",
      "outputs": [
        {
          "internalType": "address[]",
          "name": "",
          "type": "address[]"
        }
      ],
      "stateMutability": "view",
      "type": "function"
    },
    {
      "inputs": [],
      "name": "lotteryEntry",
      "outputs": [],
      "stateMutability": "payable",
      "type": "function"
    },
    {
      "inputs": [],
      "name": "manager",
      "outputs": [
        {
          "internalType": "address",
          "name": "",
          "type": "address"
        }
      ],
      "stateMutability": "view",
      "type": "function"
    },
    {
      "inputs": [],
      "name": "pickWinner",
      "outputs": [],
      "stateMutability": "nonpayable",
      "type": "function"
    },
    {
      "inputs": [
        {
          "internalType": "uint256",
          "name": "",
          "type": "uint256"
        }
      ],
      "name": "players",
      "outputs": [
        {
          "internalType": "address",
          "name": "",
          "type": "address"
        }
      ],
      "stateMutability": "view",
      "type": "function"
    }
  ],
  "bytecode": "0x608060405234801561001057600080fd5b50336000806101000a81548173ffffffffffffffffffffffffffffffffffffffff021916908373ffffffffffffffffffffffffffffffffffffffff160217905550610ae5806100606000396000f3fe60806040526004361061004a5760003560e01c8063481c6a751461004f5780635d495aea1461007a5780637a66aa66146100915780638b5b9ccc1461009b578063f71d96cb146100c6575b600080fd5b34801561005b57600080fd5b50610064610103565b604051610071919061059b565b60405180910390f35b34801561008657600080fd5b5061008f610127565b005b610099610301565b005b3480156100a757600080fd5b506100b06103b0565b6040516100bd9190610674565b60405180910390f35b3480156100d257600080fd5b506100ed60048036038101906100e891906106d1565b61043e565b6040516100fa919061059b565b60405180910390f35b60008054906101000a900473ffffffffffffffffffffffffffffffffffffffff1681565b60008054906101000a900473ffffffffffffffffffffffffffffffffffffffff1673ffffffffffffffffffffffffffffffffffffffff163373ffffffffffffffffffffffffffffffffffffffff16146101b5576040517f08c379a00000000000000000000000000000000000000000000000000000000081526004016101ac9061075b565b60405180910390fd5b6000600180549050116101fd576040517f08c379a00000000000000000000000000000000000000000000000000000000081526004016101f4906107c7565b60405180910390fd5b600060018054905061020d61047d565b6102179190610816565b90506001818154811061022d5761022c610847565b5b9060005260206000200160009054906101000a900473ffffffffffffffffffffffffffffffffffffffff1673ffffffffffffffffffffffffffffffffffffffff166108fc479081150290604051600060405180830381858888f1935050505015801561029d573d6000803e3d6000fd5b50600067ffffffffffffffff8111156102b9576102b8610876565b5b6040519080825280602002602001820160405280156102e75781602001602082028036833780820191505090505b50600190805190602001906102fd9291906104b3565b5050565b66038d7ea4c6800034101561034b576040517f08c379a000000000000000000000000000000000000000000000000000000000815260040161034290610917565b60405180910390fd5b6001339080600181540180825580915050600190039060005260206000200160009091909190916101000a81548173ffffffffffffffffffffffffffffffffffffffff021916908373ffffffffffffffffffffffffffffffffffffffff160217905550565b6060600180548060200260200160405190810160405280929190818152602001828054801561043457602002820191906000526020600020905b8160009054906101000a900473ffffffffffffffffffffffffffffffffffffffff1673ffffffffffffffffffffffffffffffffffffffff16815260200190600101908083116103ea575b5050505050905090565b6001818154811061044e57600080fd5b906000526020600020016000915054906101000a900473ffffffffffffffffffffffffffffffffffffffff1681565b60004442600160405160200161049593929190610a76565b6040516020818303038152906040528051906020012060001c905090565b82805482825590600052602060002090810192821561052c579160200282015b8281111561052b5782518260006101000a81548173ffffffffffffffffffffffffffffffffffffffff021916908373ffffffffffffffffffffffffffffffffffffffff160217905550916020019190600101906104d3565b5b509050610539919061053d565b5090565b5b8082111561055657600081600090555060010161053e565b5090565b600073ffffffffffffffffffffffffffffffffffffffff82169050919050565b60006105858261055a565b9050919050565b6105958161057a565b82525050565b60006020820190506105b0600083018461058c565b92915050565b600081519050919050565b600082825260208201905092915050565b6000819050602082019050919050565b6105eb8161057a565b82525050565b60006105fd83836105e2565b60208301905092915050565b6000602082019050919050565b6000610621826105b6565b61062b81856105c1565b9350610636836105d2565b8060005b8381101561066757815161064e88826105f1565b975061065983610609565b92505060018101905061063a565b5085935050505092915050565b6000602082019050818103600083015261068e8184610616565b905092915050565b600080fd5b6000819050919050565b6106ae8161069b565b81146106b957600080fd5b50565b6000813590506106cb816106a5565b92915050565b6000602082840312156106e7576106e6610696565b5b60006106f5848285016106bc565b91505092915050565b600082825260208201905092915050565b7f4e6f7420617574686f72697a6520746f207069636b2077696e6e65722e000000600082015250565b6000610745601d836106fe565b91506107508261070f565b602082019050919050565b6000602082019050818103600083015261077481610738565b9050919050565b7f4e6f206f6e6520697320706c6179696e67206c6f74746572792e000000000000600082015250565b60006107b1601a836106fe565b91506107bc8261077b565b602082019050919050565b600060208201905081810360008301526107e0816107a4565b9050919050565b7f4e487b7100000000000000000000000000000000000000000000000000000000600052601260045260246000fd5b60006108218261069b565b915061082c8361069b565b92508261083c5761083b6107e7565b5b828206905092915050565b7f4e487b7100000000000000000000000000000000000000000000000000000000600052603260045260246000fd5b7f4e487b7100000000000000000000000000000000000000000000000000000000600052604160045260246000fd5b7f50616964206c657373207468616e20302e30303120657468657220666f72206560008201527f6e7472792e000000000000000000000000000000000000000000000000000000602082015250565b60006109016025836106fe565b915061090c826108a5565b604082019050919050565b60006020820190508181036000830152610930816108f4565b9050919050565b6000819050919050565b61095261094d8261069b565b610937565b82525050565b600081549050919050565b600081905092915050565b60008190508160005260206000209050919050565b61098c8161057a565b82525050565b600061099e8383610983565b60208301905092915050565b60008160001c9050919050565b600073ffffffffffffffffffffffffffffffffffffffff82169050919050565b60006109ea6109e5836109aa565b6109b7565b9050919050565b60006109fd82546109d7565b9050919050565b6000600182019050919050565b6000610a1c82610958565b610a268185610963565b9350610a318361096e565b8060005b83811015610a6957610a46826109f1565b610a508882610992565b9750610a5b83610a04565b925050600181019050610a35565b5085935050505092915050565b6000610a828286610941565b602082019150610a928285610941565b602082019150610aa28284610a11565b915081905094935050505056fea26469706673582212209f59fc4f90b87f787be7de6ab958549452014dc531783de68b7381b57345dff964736f6c63430008090033",
  "linkReferences": {},
  "deployedLinkReferences": {}
}