{
  "_format": "hh-sol-artifact-1",
  "contractName": "Lottery",
  "sourceName": "contracts/lottery.sol",
  "abi": [
    {
      "inputs": [],
      "stateMutability": "nonpayable",
      "type": "constructor"
    },
    {
      "inputs": [],
      "name": "lotteryEntry",
      "outputs": [],
      "stateMutability": "payable",
      "type": "function"
    },
    {
      "inputs": [],
      "name": "manager",
      "outputs": [
        {
          "internalType": "address",
          "name": "",
          "type": "address"
        }
      ],
      "stateMutability": "view",
      "type": "function"
    },
    {
      "inputs": [],
      "name": "pickWinner",
      "outputs": [],
      "stateMutability": "nonpayable",
      "type": "function"
    },
    {
      "inputs": [
        {
          "internalType": "uint256",
          "name": "",
          "type": "uint256"
        }
      ],
      "name": "players",
      "outputs": [
        {
          "internalType": "address",
          "name": "",
          "type": "address"
        }
      ],
      "stateMutability": "view",
      "type": "function"
    }
  ],
  "bytecode": "0x608060405234801561001057600080fd5b50336000806101000a81548173ffffffffffffffffffffffffffffffffffffffff021916908373ffffffffffffffffffffffffffffffffffffffff160217905550610941806100606000396000f3fe60806040526004361061003f5760003560e01c8063481c6a75146100445780635d495aea1461006f5780637a66aa6614610086578063f71d96cb14610090575b600080fd5b34801561005057600080fd5b506100596100cd565b60405161006691906104d7565b60405180910390f35b34801561007b57600080fd5b506100846100f1565b005b61008e6102cb565b005b34801561009c57600080fd5b506100b760048036038101906100b2919061052d565b61037a565b6040516100c491906104d7565b60405180910390f35b60008054906101000a900473ffffffffffffffffffffffffffffffffffffffff1681565b60008054906101000a900473ffffffffffffffffffffffffffffffffffffffff1673ffffffffffffffffffffffffffffffffffffffff163373ffffffffffffffffffffffffffffffffffffffff161461017f576040517f08c379a0000000000000000000000000000000000000000000000000000000008152600401610176906105b7565b60405180910390fd5b6000600180549050116101c7576040517f08c379a00000000000000000000000000000000000000000000000000000000081526004016101be90610623565b60405180910390fd5b60006001805490506101d76103b9565b6101e19190610672565b9050600181815481106101f7576101f66106a3565b5b9060005260206000200160009054906101000a900473ffffffffffffffffffffffffffffffffffffffff1673ffffffffffffffffffffffffffffffffffffffff166108fc479081150290604051600060405180830381858888f19350505050158015610267573d6000803e3d6000fd5b50600067ffffffffffffffff811115610283576102826106d2565b5b6040519080825280602002602001820160405280156102b15781602001602082028036833780820191505090505b50600190805190602001906102c79291906103ef565b5050565b66038d7ea4c68000341015610315576040517f08c379a000000000000000000000000000000000000000000000000000000000815260040161030c90610773565b60405180910390fd5b6001339080600181540180825580915050600190039060005260206000200160009091909190916101000a81548173ffffffffffffffffffffffffffffffffffffffff021916908373ffffffffffffffffffffffffffffffffffffffff160217905550565b6001818154811061038a57600080fd5b906000526020600020016000915054906101000a900473ffffffffffffffffffffffffffffffffffffffff1681565b6000444260016040516020016103d1939291906108d2565b6040516020818303038152906040528051906020012060001c905090565b828054828255906000526020600020908101928215610468579160200282015b828111156104675782518260006101000a81548173ffffffffffffffffffffffffffffffffffffffff021916908373ffffffffffffffffffffffffffffffffffffffff1602179055509160200191906001019061040f565b5b5090506104759190610479565b5090565b5b8082111561049257600081600090555060010161047a565b5090565b600073ffffffffffffffffffffffffffffffffffffffff82169050919050565b60006104c182610496565b9050919050565b6104d1816104b6565b82525050565b60006020820190506104ec60008301846104c8565b92915050565b600080fd5b6000819050919050565b61050a816104f7565b811461051557600080fd5b50565b60008135905061052781610501565b92915050565b600060208284031215610543576105426104f2565b5b600061055184828501610518565b91505092915050565b600082825260208201905092915050565b7f4e6f7420617574686f72697a6520746f207069636b2077696e6e65722e000000600082015250565b60006105a1601d8361055a565b91506105ac8261056b565b602082019050919050565b600060208201905081810360008301526105d081610594565b9050919050565b7f4e6f206f6e6520697320706c6179696e67206c6f74746572792e000000000000600082015250565b600061060d601a8361055a565b9150610618826105d7565b602082019050919050565b6000602082019050818103600083015261063c81610600565b9050919050565b7f4e487b7100000000000000000000000000000000000000000000000000000000600052601260045260246000fd5b600061067d826104f7565b9150610688836104f7565b92508261069857610697610643565b5b828206905092915050565b7f4e487b7100000000000000000000000000000000000000000000000000000000600052603260045260246000fd5b7f4e487b7100000000000000000000000000000000000000000000000000000000600052604160045260246000fd5b7f50616964206c657373207468616e20302e30303120657468657220666f72206560008201527f6e7472792e000000000000000000000000000000000000000000000000000000602082015250565b600061075d60258361055a565b915061076882610701565b604082019050919050565b6000602082019050818103600083015261078c81610750565b9050919050565b6000819050919050565b6107ae6107a9826104f7565b610793565b82525050565b600081549050919050565b600081905092915050565b60008190508160005260206000209050919050565b6107e8816104b6565b82525050565b60006107fa83836107df565b60208301905092915050565b60008160001c9050919050565b600073ffffffffffffffffffffffffffffffffffffffff82169050919050565b600061084661084183610806565b610813565b9050919050565b60006108598254610833565b9050919050565b6000600182019050919050565b6000610878826107b4565b61088281856107bf565b935061088d836107ca565b8060005b838110156108c5576108a28261084d565b6108ac88826107ee565b97506108b783610860565b925050600181019050610891565b5085935050505092915050565b60006108de828661079d565b6020820191506108ee828561079d565b6020820191506108fe828461086d565b915081905094935050505056fea2646970667358221220aa98f725c5b50b80ba592ae2eb4e57b621cb700f9d567f9853ba8b06e294129f64736f6c63430008090033",
  "linkReferences": {},
  "deployedLinkReferences": {}
}