{
  "_format": "hh-sol-artifact-1",
  "contractName": "Inbox",
  "sourceName": "contracts/inbox.sol",
  "abi": [
    {
      "inputs": [
        {
          "internalType": "string",
          "name": "message",
          "type": "string"
        }
      ],
      "stateMutability": "nonpayable",
      "type": "constructor"
    },
    {
      "inputs": [],
      "name": "_message",
      "outputs": [
        {
          "internalType": "string",
          "name": "",
          "type": "string"
        }
      ],
      "stateMutability": "view",
      "type": "function"
    },
    {
      "inputs": [
        {
          "internalType": "string",
          "name": "message",
          "type": "string"
        }
      ],
      "name": "setMessage",
      "outputs": [],
      "stateMutability": "nonpayable",
      "type": "function"
    }
  ],
  "bytecode": "0x60806040523480156200001157600080fd5b506040516200080e3803806200080e8339818101604052810190620000379190620002a4565b80600090805190602001906200004f92919062000057565b50506200035a565b828054620000659062000324565b90600052602060002090601f016020900481019282620000895760008555620000d5565b82601f10620000a457805160ff1916838001178555620000d5565b82800160010185558215620000d5579182015b82811115620000d4578251825591602001919060010190620000b7565b5b509050620000e49190620000e8565b5090565b5b8082111562000103576000816000905550600101620000e9565b5090565b6000604051905090565b600080fd5b600080fd5b600080fd5b600080fd5b6000601f19601f8301169050919050565b7f4e487b7100000000000000000000000000000000000000000000000000000000600052604160045260246000fd5b620001708262000125565b810181811067ffffffffffffffff8211171562000192576200019162000136565b5b80604052505050565b6000620001a762000107565b9050620001b5828262000165565b919050565b600067ffffffffffffffff821115620001d857620001d762000136565b5b620001e38262000125565b9050602081019050919050565b60005b8381101562000210578082015181840152602081019050620001f3565b8381111562000220576000848401525b50505050565b60006200023d6200023784620001ba565b6200019b565b9050828152602081018484840111156200025c576200025b62000120565b5b62000269848285620001f0565b509392505050565b600082601f8301126200028957620002886200011b565b5b81516200029b84826020860162000226565b91505092915050565b600060208284031215620002bd57620002bc62000111565b5b600082015167ffffffffffffffff811115620002de57620002dd62000116565b5b620002ec8482850162000271565b91505092915050565b7f4e487b7100000000000000000000000000000000000000000000000000000000600052602260045260246000fd5b600060028204905060018216806200033d57607f821691505b60208210811415620003545762000353620002f5565b5b50919050565b6104a4806200036a6000396000f3fe608060405234801561001057600080fd5b50600436106100365760003560e01c80630adde0eb1461003b578063368b877214610059575b600080fd5b610043610075565b6040516100509190610259565b60405180910390f35b610073600480360381019061006e91906103c4565b610103565b005b600080546100829061043c565b80601f01602080910402602001604051908101604052809291908181526020018280546100ae9061043c565b80156100fb5780601f106100d0576101008083540402835291602001916100fb565b820191906000526020600020905b8154815290600101906020018083116100de57829003601f168201915b505050505081565b806000908051906020019061011992919061011d565b5050565b8280546101299061043c565b90600052602060002090601f01602090048101928261014b5760008555610192565b82601f1061016457805160ff1916838001178555610192565b82800160010185558215610192579182015b82811115610191578251825591602001919060010190610176565b5b50905061019f91906101a3565b5090565b5b808211156101bc5760008160009055506001016101a4565b5090565b600081519050919050565b600082825260208201905092915050565b60005b838110156101fa5780820151818401526020810190506101df565b83811115610209576000848401525b50505050565b6000601f19601f8301169050919050565b600061022b826101c0565b61023581856101cb565b93506102458185602086016101dc565b61024e8161020f565b840191505092915050565b600060208201905081810360008301526102738184610220565b905092915050565b6000604051905090565b600080fd5b600080fd5b600080fd5b600080fd5b7f4e487b7100000000000000000000000000000000000000000000000000000000600052604160045260246000fd5b6102d18261020f565b810181811067ffffffffffffffff821117156102f0576102ef610299565b5b80604052505050565b600061030361027b565b905061030f82826102c8565b919050565b600067ffffffffffffffff82111561032f5761032e610299565b5b6103388261020f565b9050602081019050919050565b82818337600083830152505050565b600061036761036284610314565b6102f9565b90508281526020810184848401111561038357610382610294565b5b61038e848285610345565b509392505050565b600082601f8301126103ab576103aa61028f565b5b81356103bb848260208601610354565b91505092915050565b6000602082840312156103da576103d9610285565b5b600082013567ffffffffffffffff8111156103f8576103f761028a565b5b61040484828501610396565b91505092915050565b7f4e487b7100000000000000000000000000000000000000000000000000000000600052602260045260246000fd5b6000600282049050600182168061045457607f821691505b602082108114156104685761046761040d565b5b5091905056fea2646970667358221220a60a2f437021590eb75f7220b19e11e56cdc7ea54eaf10c771a38e3725cd2b6464736f6c63430008090033",
  "linkReferences": {},
  "deployedLinkReferences": {}
}